{
  "contractName": "ERC721TokenMock",
  "abi": [
    {
      "constant": true,
      "inputs": [
        {
          "name": "_interfaceId",
          "type": "bytes4"
        }
      ],
      "name": "supportsInterface",
      "outputs": [
        {
          "name": "",
          "type": "bool"
        }
      ],
      "payable": false,
      "stateMutability": "view",
      "type": "function"
    },
    {
      "constant": true,
      "inputs": [],
      "name": "name",
      "outputs": [
        {
          "name": "",
          "type": "string"
        }
      ],
      "payable": false,
      "stateMutability": "view",
      "type": "function"
    },
    {
      "constant": true,
      "inputs": [
        {
          "name": "_tokenId",
          "type": "uint256"
        }
      ],
      "name": "getApproved",
      "outputs": [
        {
          "name": "",
          "type": "address"
        }
      ],
      "payable": false,
      "stateMutability": "view",
      "type": "function"
    },
    {
      "constant": false,
      "inputs": [
        {
          "name": "_to",
          "type": "address"
        },
        {
          "name": "_tokenId",
          "type": "uint256"
        }
      ],
      "name": "approve",
      "outputs": [],
      "payable": false,
      "stateMutability": "nonpayable",
      "type": "function"
    },
    {
      "constant": true,
      "inputs": [],
      "name": "totalSupply",
      "outputs": [
        {
          "name": "",
          "type": "uint256"
        }
      ],
      "payable": false,
      "stateMutability": "view",
      "type": "function"
    },
    {
      "constant": true,
      "inputs": [],
      "name": "InterfaceId_ERC165",
      "outputs": [
        {
          "name": "",
          "type": "bytes4"
        }
      ],
      "payable": false,
      "stateMutability": "view",
      "type": "function"
    },
    {
      "constant": false,
      "inputs": [
        {
          "name": "_from",
          "type": "address"
        },
        {
          "name": "_to",
          "type": "address"
        },
        {
          "name": "_tokenId",
          "type": "uint256"
        }
      ],
      "name": "transferFrom",
      "outputs": [],
      "payable": false,
      "stateMutability": "nonpayable",
      "type": "function"
    },
    {
      "constant": true,
      "inputs": [
        {
          "name": "_owner",
          "type": "address"
        },
        {
          "name": "_index",
          "type": "uint256"
        }
      ],
      "name": "tokenOfOwnerByIndex",
      "outputs": [
        {
          "name": "",
          "type": "uint256"
        }
      ],
      "payable": false,
      "stateMutability": "view",
      "type": "function"
    },
    {
      "constant": false,
      "inputs": [
        {
          "name": "_from",
          "type": "address"
        },
        {
          "name": "_to",
          "type": "address"
        },
        {
          "name": "_tokenId",
          "type": "uint256"
        }
      ],
      "name": "safeTransferFrom",
      "outputs": [],
      "payable": false,
      "stateMutability": "nonpayable",
      "type": "function"
    },
    {
      "constant": true,
      "inputs": [
        {
          "name": "_tokenId",
          "type": "uint256"
        }
      ],
      "name": "exists",
      "outputs": [
        {
          "name": "",
          "type": "bool"
        }
      ],
      "payable": false,
      "stateMutability": "view",
      "type": "function"
    },
    {
      "constant": true,
      "inputs": [
        {
          "name": "_index",
          "type": "uint256"
        }
      ],
      "name": "tokenByIndex",
      "outputs": [
        {
          "name": "",
          "type": "uint256"
        }
      ],
      "payable": false,
      "stateMutability": "view",
      "type": "function"
    },
    {
      "constant": true,
      "inputs": [
        {
          "name": "_tokenId",
          "type": "uint256"
        }
      ],
      "name": "ownerOf",
      "outputs": [
        {
          "name": "",
          "type": "address"
        }
      ],
      "payable": false,
      "stateMutability": "view",
      "type": "function"
    },
    {
      "constant": true,
      "inputs": [
        {
          "name": "_owner",
          "type": "address"
        }
      ],
      "name": "balanceOf",
      "outputs": [
        {
          "name": "",
          "type": "uint256"
        }
      ],
      "payable": false,
      "stateMutability": "view",
      "type": "function"
    },
    {
      "constant": true,
      "inputs": [],
      "name": "symbol",
      "outputs": [
        {
          "name": "",
          "type": "string"
        }
      ],
      "payable": false,
      "stateMutability": "view",
      "type": "function"
    },
    {
      "constant": false,
      "inputs": [
        {
          "name": "_to",
          "type": "address"
        },
        {
          "name": "_approved",
          "type": "bool"
        }
      ],
      "name": "setApprovalForAll",
      "outputs": [],
      "payable": false,
      "stateMutability": "nonpayable",
      "type": "function"
    },
    {
      "constant": false,
      "inputs": [
        {
          "name": "_from",
          "type": "address"
        },
        {
          "name": "_to",
          "type": "address"
        },
        {
          "name": "_tokenId",
          "type": "uint256"
        },
        {
          "name": "_data",
          "type": "bytes"
        }
      ],
      "name": "safeTransferFrom",
      "outputs": [],
      "payable": false,
      "stateMutability": "nonpayable",
      "type": "function"
    },
    {
      "constant": true,
      "inputs": [
        {
          "name": "_tokenId",
          "type": "uint256"
        }
      ],
      "name": "tokenURI",
      "outputs": [
        {
          "name": "",
          "type": "string"
        }
      ],
      "payable": false,
      "stateMutability": "view",
      "type": "function"
    },
    {
      "constant": true,
      "inputs": [
        {
          "name": "_owner",
          "type": "address"
        },
        {
          "name": "_operator",
          "type": "address"
        }
      ],
      "name": "isApprovedForAll",
      "outputs": [
        {
          "name": "",
          "type": "bool"
        }
      ],
      "payable": false,
      "stateMutability": "view",
      "type": "function"
    },
    {
      "constant": false,
      "inputs": [
        {
          "name": "_to",
          "type": "address"
        },
        {
          "name": "_tokenId",
          "type": "uint256"
        }
      ],
      "name": "tokenMint",
      "outputs": [],
      "payable": false,
      "stateMutability": "nonpayable",
      "type": "function"
    },
    {
      "inputs": [
        {
          "name": "name",
          "type": "string"
        },
        {
          "name": "symbol",
          "type": "string"
        }
      ],
      "payable": false,
      "stateMutability": "nonpayable",
      "type": "constructor"
    },
    {
      "anonymous": false,
      "inputs": [
        {
          "indexed": true,
          "name": "_from",
          "type": "address"
        },
        {
          "indexed": true,
          "name": "_to",
          "type": "address"
        },
        {
          "indexed": true,
          "name": "_tokenId",
          "type": "uint256"
        }
      ],
      "name": "Transfer",
      "type": "event"
    },
    {
      "anonymous": false,
      "inputs": [
        {
          "indexed": true,
          "name": "_owner",
          "type": "address"
        },
        {
          "indexed": true,
          "name": "_approved",
          "type": "address"
        },
        {
          "indexed": true,
          "name": "_tokenId",
          "type": "uint256"
        }
      ],
      "name": "Approval",
      "type": "event"
    },
    {
      "anonymous": false,
      "inputs": [
        {
          "indexed": true,
          "name": "_owner",
          "type": "address"
        },
        {
          "indexed": true,
          "name": "_operator",
          "type": "address"
        },
        {
          "indexed": false,
          "name": "_approved",
          "type": "bool"
        }
      ],
      "name": "ApprovalForAll",
      "type": "event"
    },
    {
      "constant": false,
      "inputs": [
        {
          "name": "_to",
          "type": "address"
        },
        {
          "name": "_tokenId",
          "type": "uint256"
        }
      ],
      "name": "mint",
      "outputs": [],
      "payable": false,
      "stateMutability": "nonpayable",
      "type": "function"
    },
    {
      "constant": false,
      "inputs": [
        {
          "name": "_tokenId",
          "type": "uint256"
        }
      ],
      "name": "burn",
      "outputs": [],
      "payable": false,
      "stateMutability": "nonpayable",
      "type": "function"
    },
    {
      "constant": false,
      "inputs": [
        {
          "name": "_tokenId",
          "type": "uint256"
        },
        {
          "name": "_uri",
          "type": "string"
        }
      ],
      "name": "setTokenURI",
      "outputs": [],
      "payable": false,
      "stateMutability": "nonpayable",
      "type": "function"
    },
    {
      "constant": false,
      "inputs": [
        {
          "name": "_from",
          "type": "address"
        },
        {
          "name": "_tokenId",
          "type": "uint256"
        }
      ],
      "name": "_removeTokenFrom",
      "outputs": [],
      "payable": false,
      "stateMutability": "nonpayable",
      "type": "function"
    }
  ],
  "bytecode": "0x60806040523480156200001157600080fd5b506040516200291638038062002916833981018060405281019080805182019291906020018051820192919050505081816000620000816301ffc9a77c0100000000000000000000000000000000000000000000000000000000026200024e640100000000026401000000009004565b620000be6380ac58cd7c0100000000000000000000000000000000000000000000000000000000026200024e640100000000026401000000009004565b620000fb634f558e797c0100000000000000000000000000000000000000000000000000000000026200024e640100000000026401000000009004565b826005908051906020019062000113929190620006ab565b5081600690805190602001906200012c929190620006ab565b506200016a63780e9d637c0100000000000000000000000000000000000000000000000000000000026200024e640100000000026401000000009004565b620001a7635b5e139f7c0100000000000000000000000000000000000000000000000000000000026200024e640100000000026401000000009004565b33600760006101000a81548173ffffffffffffffffffffffffffffffffffffffff021916908373ffffffffffffffffffffffffffffffffffffffff160217905550600090505b600b81111515620002435762000235600760009054906101000a900473ffffffffffffffffffffffffffffffffffffffff16826200030c640100000000026401000000009004565b8080600101915050620001ed565b50505050506200075a565b63ffffffff7c010000000000000000000000000000000000000000000000000000000002817bffffffffffffffffffffffffffffffffffffffffffffffffffffffff191614151515620002a057600080fd5b6001600080837bffffffffffffffffffffffffffffffffffffffffffffffffffffffff19167bffffffffffffffffffffffffffffffffffffffffffffffffffffffff1916815260200190815260200160002060006101000a81548160ff02191690831515021790555050565b6200032c8282620003796401000000000262001f19176401000000009004565b600a80549050600b600083815260200190815260200160002081905550600a8190806001815401808255809150509060018203906000526020600020016000909192909190915055505050565b600073ffffffffffffffffffffffffffffffffffffffff168273ffffffffffffffffffffffffffffffffffffffff1614151515620003b657600080fd5b620003d1828262000431640100000000026401000000009004565b808273ffffffffffffffffffffffffffffffffffffffff16600073ffffffffffffffffffffffffffffffffffffffff167fddf252ad1be2c89b69c2b068fc378daa952ba7f163c4a11628f55a4df523b3ef60405160405180910390a45050565b60006200045383836200051e6401000000000262001dbf176401000000009004565b600860008473ffffffffffffffffffffffffffffffffffffffff1673ffffffffffffffffffffffffffffffffffffffff168152602001908152602001600020805490509050600860008473ffffffffffffffffffffffffffffffffffffffff1673ffffffffffffffffffffffffffffffffffffffff168152602001908152602001600020829080600181540180825580915050906001820390600052602060002001600090919290919091505550806009600084815260200190815260200160002081905550505050565b600073ffffffffffffffffffffffffffffffffffffffff166001600083815260200190815260200160002060009054906101000a900473ffffffffffffffffffffffffffffffffffffffff1673ffffffffffffffffffffffffffffffffffffffff161415156200058d57600080fd5b816001600083815260200190815260200160002060006101000a81548173ffffffffffffffffffffffffffffffffffffffff021916908373ffffffffffffffffffffffffffffffffffffffff160217905550620006426001600360008573ffffffffffffffffffffffffffffffffffffffff1673ffffffffffffffffffffffffffffffffffffffff16815260200190815260200160002054620006896401000000000262002046179091906401000000009004565b600360008473ffffffffffffffffffffffffffffffffffffffff1673ffffffffffffffffffffffffffffffffffffffff168152602001908152602001600020819055505050565b6000808284019050838110151515620006a157600080fd5b8091505092915050565b828054600181600116156101000203166002900490600052602060002090601f016020900481019282601f10620006ee57805160ff19168380011785556200071f565b828001600101855582156200071f579182015b828111156200071e57825182559160200191906001019062000701565b5b5090506200072e919062000732565b5090565b6200075791905b808211156200075357600081600090555060010162000739565b5090565b90565b6121ac806200076a6000396000f300608060405260043610610133576000357c0100000000000000000000000000000000000000000000000000000000900463ffffffff16806301ffc9a71461013857806306fdde031461019c578063081812fc1461022c578063095ea7b314610299578063162094c4146102e657806318160ddd1461035957806319fa8f501461038457806323b872dd146103ed5780632f745c591461045a57806340c10f19146104bb57806342842e0e1461050857806342966c68146105755780634f558e79146105a25780634f6ccce7146105e75780636352211e1461062857806370a08231146106955780639260587e146106ec57806395d89b4114610739578063a22cb465146107c9578063b88d4fde14610818578063c87b56dd146108cb578063e985e9c514610971578063eef892aa146109ec575b600080fd5b34801561014457600080fd5b5061018260048036038101908080357bffffffffffffffffffffffffffffffffffffffffffffffffffffffff19169060200190929190505050610a39565b604051808215151515815260200191505060405180910390f35b3480156101a857600080fd5b506101b1610aa0565b6040518080602001828103825283818151815260200191508051906020019080838360005b838110156101f15780820151818401526020810190506101d6565b50505050905090810190601f16801561021e5780820380516001836020036101000a031916815260200191505b509250505060405180910390f35b34801561023857600080fd5b5061025760048036038101908080359060200190929190505050610b42565b604051808273ffffffffffffffffffffffffffffffffffffffff1673ffffffffffffffffffffffffffffffffffffffff16815260200191505060405180910390f35b3480156102a557600080fd5b506102e4600480360381019080803573ffffffffffffffffffffffffffffffffffffffff16906020019092919080359060200190929190505050610b7f565b005b3480156102f257600080fd5b5061035760048036038101908080359060200190929190803590602001908201803590602001908080601f0160208091040260200160405190810160405280939291908181526020018383808284378201915050505050509192919290505050610cc4565b005b34801561036557600080fd5b5061036e610cd2565b6040518082815260200191505060405180910390f35b34801561039057600080fd5b50610399610cdf565b60405180827bffffffffffffffffffffffffffffffffffffffffffffffffffffffff19167bffffffffffffffffffffffffffffffffffffffffffffffffffffffff1916815260200191505060405180910390f35b3480156103f957600080fd5b50610458600480360381019080803573ffffffffffffffffffffffffffffffffffffffff169060200190929190803573ffffffffffffffffffffffffffffffffffffffff16906020019092919080359060200190929190505050610d06565b005b34801561046657600080fd5b506104a5600480360381019080803573ffffffffffffffffffffffffffffffffffffffff16906020019092919080359060200190929190505050610e11565b6040518082815260200191505060405180910390f35b3480156104c757600080fd5b50610506600480360381019080803573ffffffffffffffffffffffffffffffffffffffff16906020019092919080359060200190929190505050610e88565b005b34801561051457600080fd5b50610573600480360381019080803573ffffffffffffffffffffffffffffffffffffffff169060200190929190803573ffffffffffffffffffffffffffffffffffffffff16906020019092919080359060200190929190505050610e96565b005b34801561058157600080fd5b506105a060048036038101908080359060200190929190505050610eb7565b005b3480156105ae57600080fd5b506105cd60048036038101908080359060200190929190505050610ecc565b604051808215151515815260200191505060405180910390f35b3480156105f357600080fd5b5061061260048036038101908080359060200190929190505050610f3e565b6040518082815260200191505060405180910390f35b34801561063457600080fd5b5061065360048036038101908080359060200190929190505050610f76565b604051808273ffffffffffffffffffffffffffffffffffffffff1673ffffffffffffffffffffffffffffffffffffffff16815260200191505060405180910390f35b3480156106a157600080fd5b506106d6600480360381019080803573ffffffffffffffffffffffffffffffffffffffff169060200190929190505050610ff4565b6040518082815260200191505060405180910390f35b3480156106f857600080fd5b50610737600480360381019080803573ffffffffffffffffffffffffffffffffffffffff16906020019092919080359060200190929190505050611078565b005b34801561074557600080fd5b5061074e611086565b6040518080602001828103825283818151815260200191508051906020019080838360005b8381101561078e578082015181840152602081019050610773565b50505050905090810190601f1680156107bb5780820380516001836020036101000a031916815260200191505b509250505060405180910390f35b3480156107d557600080fd5b50610816600480360381019080803573ffffffffffffffffffffffffffffffffffffffff169060200190929190803515159060200190929190505050611128565b005b34801561082457600080fd5b506108c9600480360381019080803573ffffffffffffffffffffffffffffffffffffffff169060200190929190803573ffffffffffffffffffffffffffffffffffffffff16906020019092919080359060200190929190803590602001908201803590602001908080601f0160208091040260200160405190810160405280939291908181526020018383808284378201915050505050509192919290505050611264565b005b3480156108d757600080fd5b506108f66004803603810190808035906020019092919050505061128c565b6040518080602001828103825283818151815260200191508051906020019080838360005b8381101561093657808201518184015260208101905061091b565b50505050905090810190601f1680156109635780820380516001836020036101000a031916815260200191505b509250505060405180910390f35b34801561097d57600080fd5b506109d2600480360381019080803573ffffffffffffffffffffffffffffffffffffffff169060200190929190803573ffffffffffffffffffffffffffffffffffffffff169060200190929190505050611355565b604051808215151515815260200191505060405180910390f35b3480156109f857600080fd5b50610a37600480360381019080803573ffffffffffffffffffffffffffffffffffffffff169060200190929190803590602001909291905050506113e9565b005b6000806000837bffffffffffffffffffffffffffffffffffffffffffffffffffffffff19167bffffffffffffffffffffffffffffffffffffffffffffffffffffffff1916815260200190815260200160002060009054906101000a900460ff169050919050565b606060058054600181600116156101000203166002900480601f016020809104026020016040519081016040528092919081815260200182805460018160011615610100020316600290048015610b385780601f10610b0d57610100808354040283529160200191610b38565b820191906000526020600020905b815481529060010190602001808311610b1b57829003601f168201915b5050505050905090565b60006002600083815260200190815260200160002060009054906101000a900473ffffffffffffffffffffffffffffffffffffffff169050919050565b6000610b8a82610f76565b90508073ffffffffffffffffffffffffffffffffffffffff168373ffffffffffffffffffffffffffffffffffffffff1614151515610bc757600080fd5b8073ffffffffffffffffffffffffffffffffffffffff163373ffffffffffffffffffffffffffffffffffffffff161480610c075750610c068133611355565b5b1515610c1257600080fd5b826002600084815260200190815260200160002060006101000a81548173ffffffffffffffffffffffffffffffffffffffff021916908373ffffffffffffffffffffffffffffffffffffffff160217905550818373ffffffffffffffffffffffffffffffffffffffff168273ffffffffffffffffffffffffffffffffffffffff167f8c5be1e5ebec7d5bd14f71427d1e84f3dd0314c0f7b2291e5b200ac8c7c3b92560405160405180910390a4505050565b610cce8282611453565b5050565b6000600a80549050905090565b6301ffc9a77c01000000000000000000000000000000000000000000000000000000000281565b610d103382611493565b1515610d1b57600080fd5b600073ffffffffffffffffffffffffffffffffffffffff168373ffffffffffffffffffffffffffffffffffffffff1614151515610d5757600080fd5b600073ffffffffffffffffffffffffffffffffffffffff168273ffffffffffffffffffffffffffffffffffffffff1614151515610d9357600080fd5b610d9d8382611528565b610da7838261162b565b610db182826117e7565b808273ffffffffffffffffffffffffffffffffffffffff168473ffffffffffffffffffffffffffffffffffffffff167fddf252ad1be2c89b69c2b068fc378daa952ba7f163c4a11628f55a4df523b3ef60405160405180910390a4505050565b6000610e1c83610ff4565b82101515610e2957600080fd5b600860008473ffffffffffffffffffffffffffffffffffffffff1673ffffffffffffffffffffffffffffffffffffffff16815260200190815260200160002082815481101515610e7557fe5b9060005260206000200154905092915050565b610e9282826118be565b5050565b610eb28383836020604051908101604052806000815250611264565b505050565b610ec9610ec382610f76565b82611915565b50565b6000806001600084815260200190815260200160002060009054906101000a900473ffffffffffffffffffffffffffffffffffffffff169050600073ffffffffffffffffffffffffffffffffffffffff168173ffffffffffffffffffffffffffffffffffffffff161415915050919050565b6000610f48610cd2565b82101515610f5557600080fd5b600a82815481101515610f6457fe5b90600052602060002001549050919050565b6000806001600084815260200190815260200160002060009054906101000a900473ffffffffffffffffffffffffffffffffffffffff169050600073ffffffffffffffffffffffffffffffffffffffff168173ffffffffffffffffffffffffffffffffffffffff1614151515610feb57600080fd5b80915050919050565b60008073ffffffffffffffffffffffffffffffffffffffff168273ffffffffffffffffffffffffffffffffffffffff161415151561103157600080fd5b600360008373ffffffffffffffffffffffffffffffffffffffff1673ffffffffffffffffffffffffffffffffffffffff168152602001908152602001600020549050919050565b611082828261162b565b5050565b606060068054600181600116156101000203166002900480601f01602080910402602001604051908101604052809291908181526020018280546001816001161561010002031660029004801561111e5780601f106110f35761010080835404028352916020019161111e565b820191906000526020600020905b81548152906001019060200180831161110157829003601f168201915b5050505050905090565b3373ffffffffffffffffffffffffffffffffffffffff168273ffffffffffffffffffffffffffffffffffffffff161415151561116357600080fd5b80600460003373ffffffffffffffffffffffffffffffffffffffff1673ffffffffffffffffffffffffffffffffffffffff16815260200190815260200160002060008473ffffffffffffffffffffffffffffffffffffffff1673ffffffffffffffffffffffffffffffffffffffff16815260200190815260200160002060006101000a81548160ff0219169083151502179055508173ffffffffffffffffffffffffffffffffffffffff163373ffffffffffffffffffffffffffffffffffffffff167f17307eab39ab6107e8899845ad3d59bd9653f200f220920489ca2b5937696c3183604051808215151515815260200191505060405180910390a35050565b61126f848484610d06565b61127b84848484611a4d565b151561128657600080fd5b50505050565b606061129782610ecc565b15156112a257600080fd5b600c60008381526020019081526020016000208054600181600116156101000203166002900480601f0160208091040260200160405190810160405280929190818152602001828054600181600116156101000203166002900480156113495780601f1061131e57610100808354040283529160200191611349565b820191906000526020600020905b81548152906001019060200180831161132c57829003601f168201915b50505050509050919050565b6000600460008473ffffffffffffffffffffffffffffffffffffffff1673ffffffffffffffffffffffffffffffffffffffff16815260200190815260200160002060008373ffffffffffffffffffffffffffffffffffffffff1673ffffffffffffffffffffffffffffffffffffffff16815260200190815260200160002060009054906101000a900460ff16905092915050565b600760009054906101000a900473ffffffffffffffffffffffffffffffffffffffff1673ffffffffffffffffffffffffffffffffffffffff163373ffffffffffffffffffffffffffffffffffffffff1614151561144557600080fd5b61144f82826118be565b5050565b61145c82610ecc565b151561146757600080fd5b80600c6000848152602001908152602001600020908051906020019061148e929190612067565b505050565b60008061149f83610f76565b90508073ffffffffffffffffffffffffffffffffffffffff168473ffffffffffffffffffffffffffffffffffffffff16148061150e57508373ffffffffffffffffffffffffffffffffffffffff166114f684610b42565b73ffffffffffffffffffffffffffffffffffffffff16145b8061151f575061151e8185611355565b5b91505092915050565b8173ffffffffffffffffffffffffffffffffffffffff1661154882610f76565b73ffffffffffffffffffffffffffffffffffffffff1614151561156a57600080fd5b600073ffffffffffffffffffffffffffffffffffffffff166002600083815260200190815260200160002060009054906101000a900473ffffffffffffffffffffffffffffffffffffffff1673ffffffffffffffffffffffffffffffffffffffff161415156116275760006002600083815260200190815260200160002060006101000a81548173ffffffffffffffffffffffffffffffffffffffff021916908373ffffffffffffffffffffffffffffffffffffffff1602179055505b5050565b600080600061163a8585611c6f565b600960008581526020019081526020016000205492506116a66001600860008873ffffffffffffffffffffffffffffffffffffffff1673ffffffffffffffffffffffffffffffffffffffff16815260200190815260200160002080549050611d9e90919063ffffffff16565b9150600860008673ffffffffffffffffffffffffffffffffffffffff1673ffffffffffffffffffffffffffffffffffffffff168152602001908152602001600020828154811015156116f457fe5b9060005260206000200154905080600860008773ffffffffffffffffffffffffffffffffffffffff1673ffffffffffffffffffffffffffffffffffffffff1681526020019081526020016000208481548110151561174e57fe5b9060005260206000200181905550600860008673ffffffffffffffffffffffffffffffffffffffff1673ffffffffffffffffffffffffffffffffffffffff1681526020019081526020016000208054809190600190036117ae91906120e7565b50600060096000868152602001908152602001600020819055508260096000838152602001908152602001600020819055505050505050565b60006117f38383611dbf565b600860008473ffffffffffffffffffffffffffffffffffffffff1673ffffffffffffffffffffffffffffffffffffffff168152602001908152602001600020805490509050600860008473ffffffffffffffffffffffffffffffffffffffff1673ffffffffffffffffffffffffffffffffffffffff168152602001908152602001600020829080600181540180825580915050906001820390600052602060002001600090919290919091505550806009600084815260200190815260200160002081905550505050565b6118c88282611f19565b600a80549050600b600083815260200190815260200160002081905550600a8190806001815401808255809150509060018203906000526020600020016000909192909190915055505050565b60008060006119248585611fbf565b6000600c600086815260200190815260200160002080546001816001161561010002031660029004905014151561197557600c600085815260200190815260200160002060006119749190612113565b5b600b60008581526020019081526020016000205492506119a46001600a80549050611d9e90919063ffffffff16565b9150600a828154811015156119b557fe5b9060005260206000200154905080600a848154811015156119d257fe5b90600052602060002001819055506000600a838154811015156119f157fe5b9060005260206000200181905550600a805480919060019003611a1491906120e7565b506000600b60008681526020019081526020016000208190555082600b6000838152602001908152602001600020819055505050505050565b600080611a6f8573ffffffffffffffffffffffffffffffffffffffff16612033565b1515611a7e5760019150611c66565b8473ffffffffffffffffffffffffffffffffffffffff1663150b7a02338887876040518563ffffffff167c0100000000000000000000000000000000000000000000000000000000028152600401808573ffffffffffffffffffffffffffffffffffffffff1673ffffffffffffffffffffffffffffffffffffffff1681526020018473ffffffffffffffffffffffffffffffffffffffff1673ffffffffffffffffffffffffffffffffffffffff16815260200183815260200180602001828103825283818151815260200191508051906020019080838360005b83811015611b73578082015181840152602081019050611b58565b50505050905090810190601f168015611ba05780820380516001836020036101000a031916815260200191505b5095505050505050602060405180830381600087803b158015611bc257600080fd5b505af1158015611bd6573d6000803e3d6000fd5b505050506040513d6020811015611bec57600080fd5b8101908080519060200190929190505050905063150b7a027c0100000000000000000000000000000000000000000000000000000000027bffffffffffffffffffffffffffffffffffffffffffffffffffffffff1916817bffffffffffffffffffffffffffffffffffffffffffffffffffffffff19161491505b50949350505050565b8173ffffffffffffffffffffffffffffffffffffffff16611c8f82610f76565b73ffffffffffffffffffffffffffffffffffffffff16141515611cb157600080fd5b611d046001600360008573ffffffffffffffffffffffffffffffffffffffff1673ffffffffffffffffffffffffffffffffffffffff16815260200190815260200160002054611d9e90919063ffffffff16565b600360008473ffffffffffffffffffffffffffffffffffffffff1673ffffffffffffffffffffffffffffffffffffffff1681526020019081526020016000208190555060006001600083815260200190815260200160002060006101000a81548173ffffffffffffffffffffffffffffffffffffffff021916908373ffffffffffffffffffffffffffffffffffffffff1602179055505050565b600080838311151515611db057600080fd5b82840390508091505092915050565b600073ffffffffffffffffffffffffffffffffffffffff166001600083815260200190815260200160002060009054906101000a900473ffffffffffffffffffffffffffffffffffffffff1673ffffffffffffffffffffffffffffffffffffffff16141515611e2d57600080fd5b816001600083815260200190815260200160002060006101000a81548173ffffffffffffffffffffffffffffffffffffffff021916908373ffffffffffffffffffffffffffffffffffffffff160217905550611ed26001600360008573ffffffffffffffffffffffffffffffffffffffff1673ffffffffffffffffffffffffffffffffffffffff1681526020019081526020016000205461204690919063ffffffff16565b600360008473ffffffffffffffffffffffffffffffffffffffff1673ffffffffffffffffffffffffffffffffffffffff168152602001908152602001600020819055505050565b600073ffffffffffffffffffffffffffffffffffffffff168273ffffffffffffffffffffffffffffffffffffffff1614151515611f5557600080fd5b611f5f82826117e7565b808273ffffffffffffffffffffffffffffffffffffffff16600073ffffffffffffffffffffffffffffffffffffffff167fddf252ad1be2c89b69c2b068fc378daa952ba7f163c4a11628f55a4df523b3ef60405160405180910390a45050565b611fc98282611528565b611fd3828261162b565b80600073ffffffffffffffffffffffffffffffffffffffff168373ffffffffffffffffffffffffffffffffffffffff167fddf252ad1be2c89b69c2b068fc378daa952ba7f163c4a11628f55a4df523b3ef60405160405180910390a45050565b600080823b905060008111915050919050565b600080828401905083811015151561205d57600080fd5b8091505092915050565b828054600181600116156101000203166002900490600052602060002090601f016020900481019282601f106120a857805160ff19168380011785556120d6565b828001600101855582156120d6579182015b828111156120d55782518255916020019190600101906120ba565b5b5090506120e3919061215b565b5090565b81548183558181111561210e5781836000526020600020918201910161210d919061215b565b5b505050565b50805460018160011615610100020316600290046000825580601f106121395750612158565b601f016020900490600052602060002090810190612157919061215b565b5b50565b61217d91905b80821115612179576000816000905550600101612161565b5090565b905600a165627a7a72305820888e332ffdeb0e87da9b4237a06a2909102e54fd51d0a33d0631ed797d6908520029",
  "source": "pragma solidity ^0.4.24;\n\nimport \"../ERC721Token.sol\";\n\n\n/**\n * @title ERC721TokenMock\n * This mock just provides a public mint and burn functions for testing purposes,\n * and a public setter for metadata URI\n */\ncontract ERC721TokenMock is ERC721Token {\n  constructor(string name, string symbol) public\n    ERC721Token(name, symbol)\n  { }\n\n  function mint(address _to, uint256 _tokenId) public {\n    super._mint(_to, _tokenId);\n  }\n\n  function burn(uint256 _tokenId) public {\n    super._burn(ownerOf(_tokenId), _tokenId);\n  }\n\n  function setTokenURI(uint256 _tokenId, string _uri) public {\n    super._setTokenURI(_tokenId, _uri);\n  }\n  \n  function _removeTokenFrom(address _from, uint256 _tokenId) public {\n    super.removeTokenFrom(_from, _tokenId);\n  }\n}\n",
  "sourcePath": "/home/malak/sites/rbkBlockchain/GreenChain/contracts/mocks/ERC721TokenMock.sol",
  "compiler": {
    "name": "solc",
    "version": "0.4.24+commit.e67f0147.Emscripten.clang"
  },
  "schemaVersion": "2.0.1",
  "updatedAt": "2018-09-02T09:11:22.643Z"
}