{
  "contractName": "ERC721ReceiverMock",
  "abi": [
    {
      "inputs": [
        {
          "name": "_retval",
          "type": "bytes4"
        },
        {
          "name": "_reverts",
          "type": "bool"
        }
      ],
      "payable": false,
      "stateMutability": "nonpayable",
      "type": "constructor"
    },
    {
      "anonymous": false,
      "inputs": [
        {
          "indexed": false,
          "name": "_operator",
          "type": "address"
        },
        {
          "indexed": false,
          "name": "_from",
          "type": "address"
        },
        {
          "indexed": false,
          "name": "_tokenId",
          "type": "uint256"
        },
        {
          "indexed": false,
          "name": "_data",
          "type": "bytes"
        },
        {
          "indexed": false,
          "name": "_gas",
          "type": "uint256"
        }
      ],
      "name": "Received",
      "type": "event"
    },
    {
      "constant": false,
      "inputs": [
        {
          "name": "_operator",
          "type": "address"
        },
        {
          "name": "_from",
          "type": "address"
        },
        {
          "name": "_tokenId",
          "type": "uint256"
        },
        {
          "name": "_data",
          "type": "bytes"
        }
      ],
      "name": "onERC721Received",
      "outputs": [
        {
          "name": "",
          "type": "bytes4"
        }
      ],
      "payable": false,
      "stateMutability": "nonpayable",
      "type": "function"
    }
  ],
  "bytecode": "0x608060405234801561001057600080fd5b5060405160408061037f8339810180604052810190808051906020019092919080519060200190929190505050816000806101000a81548163ffffffff02191690837c01000000000000000000000000000000000000000000000000000000009004021790555080600060046101000a81548160ff02191690831515021790555050506102dd806100a26000396000f300608060405260043610610041576000357c0100000000000000000000000000000000000000000000000000000000900463ffffffff168063150b7a0214610046575b600080fd5b34801561005257600080fd5b506100f7600480360381019080803573ffffffffffffffffffffffffffffffffffffffff169060200190929190803573ffffffffffffffffffffffffffffffffffffffff16906020019092919080359060200190929190803590602001908201803590602001908080601f016020809104026020016040519081016040528093929190818152602001838380828437820191505050505050919291929050505061014b565b60405180827bffffffffffffffffffffffffffffffffffffffffffffffffffffffff19167bffffffffffffffffffffffffffffffffffffffffffffffffffffffff1916815260200191505060405180910390f35b60008060049054906101000a900460ff1615151561016857600080fd5b7f28fa6e16458f9c24aa59ddd4085264573006dbe30304837873c7deafc702b038858585855a604051808673ffffffffffffffffffffffffffffffffffffffff1673ffffffffffffffffffffffffffffffffffffffff1681526020018573ffffffffffffffffffffffffffffffffffffffff1673ffffffffffffffffffffffffffffffffffffffff16815260200184815260200180602001838152602001828103825284818151815260200191508051906020019080838360005b8381101561023e578082015181840152602081019050610223565b50505050905090810190601f16801561026b5780820380516001836020036101000a031916815260200191505b50965050505050505060405180910390a16000809054906101000a90047c01000000000000000000000000000000000000000000000000000000000290509493505050505600a165627a7a723058208313a02d3448ccd8a0a46a63e90d465fd5b4b28fea306e26b3c793c5cc233b400029",
  "source": "pragma solidity ^0.4.24;\n\nimport \"../ERC721Receiver.sol\";\n\n\ncontract ERC721ReceiverMock is ERC721Receiver {\n  bytes4 retval;\n  bool reverts;\n\n  event Received(\n    address _operator,\n    address _from,\n    uint256 _tokenId,\n    bytes _data,\n    uint256 _gas\n  );\n\n  constructor(bytes4 _retval, bool _reverts) public {\n    retval = _retval;\n    reverts = _reverts;\n  }\n\n  function onERC721Received(\n    address _operator,\n    address _from,\n    uint256 _tokenId,\n    bytes _data\n  )\n    public\n    returns(bytes4)\n  {\n    require(!reverts);\n    emit Received(\n      _operator,\n      _from,\n      _tokenId,\n      _data,\n      gasleft() // msg.gas was deprecated in solidityv0.4.21\n    );\n    return retval;\n  }\n}\n",
  "sourcePath": "/home/malak/sites/rbkBlockchain/GreenChain/contracts/mocks/ERC721ReceiverMock.sol",
  "compiler": {
    "name": "solc",
    "version": "0.4.24+commit.e67f0147.Emscripten.clang"
  },
  "schemaVersion": "2.0.1",
  "updatedAt": "2018-09-02T09:11:22.641Z"
}