{
  "contractName": "SafeMathMock",
  "abi": [
    {
      "constant": true,
      "inputs": [
        {
          "name": "_a",
          "type": "uint256"
        },
        {
          "name": "_b",
          "type": "uint256"
        }
      ],
      "name": "mul",
      "outputs": [
        {
          "name": "",
          "type": "uint256"
        }
      ],
      "payable": false,
      "stateMutability": "pure",
      "type": "function"
    },
    {
      "constant": true,
      "inputs": [
        {
          "name": "_a",
          "type": "uint256"
        },
        {
          "name": "_b",
          "type": "uint256"
        }
      ],
      "name": "div",
      "outputs": [
        {
          "name": "",
          "type": "uint256"
        }
      ],
      "payable": false,
      "stateMutability": "pure",
      "type": "function"
    },
    {
      "constant": true,
      "inputs": [
        {
          "name": "_a",
          "type": "uint256"
        },
        {
          "name": "_b",
          "type": "uint256"
        }
      ],
      "name": "sub",
      "outputs": [
        {
          "name": "",
          "type": "uint256"
        }
      ],
      "payable": false,
      "stateMutability": "pure",
      "type": "function"
    },
    {
      "constant": true,
      "inputs": [
        {
          "name": "_a",
          "type": "uint256"
        },
        {
          "name": "_b",
          "type": "uint256"
        }
      ],
      "name": "add",
      "outputs": [
        {
          "name": "",
          "type": "uint256"
        }
      ],
      "payable": false,
      "stateMutability": "pure",
      "type": "function"
    }
  ],
  "bytecode": "0x608060405234801561001057600080fd5b506102b9806100206000396000f300608060405260043610610062576000357c0100000000000000000000000000000000000000000000000000000000900463ffffffff168063771602f714610067578063a391c15b146100b2578063b67d77c5146100fd578063c8a4ac9c14610148575b600080fd5b34801561007357600080fd5b5061009c6004803603810190808035906020019092919080359060200190929190505050610193565b6040518082815260200191505060405180910390f35b3480156100be57600080fd5b506100e760048036038101908080359060200190929190803590602001909291905050506101a7565b6040518082815260200191505060405180910390f35b34801561010957600080fd5b5061013260048036038101908080359060200190929190803590602001909291905050506101bb565b6040518082815260200191505060405180910390f35b34801561015457600080fd5b5061017d60048036038101908080359060200190929190803590602001909291905050506101cf565b6040518082815260200191505060405180910390f35b600061019f83836101e3565b905092915050565b60006101b38383610204565b905092915050565b60006101c7838361022e565b905092915050565b60006101db838361024f565b905092915050565b60008082840190508381101515156101fa57600080fd5b8091505092915050565b60008060008311151561021657600080fd5b828481151561022157fe5b0490508091505092915050565b60008083831115151561024057600080fd5b82840390508091505092915050565b60008060008414156102645760009150610286565b828402905082848281151561027557fe5b0414151561028257600080fd5b8091505b50929150505600a165627a7a7230582067e62f9acab399095e5f62765c5345811fe80fa7e40ba7d535b9f77720dcfbeb0029",
  "source": "pragma solidity ^0.4.24;\n\n\nimport \"../../math/SafeMath.sol\";\n\n\ncontract SafeMathMock {\n\n  function mul(uint256 _a, uint256 _b) public pure returns (uint256) {\n    return SafeMath.mul(_a, _b);\n  }\n\n  function div(uint256 _a, uint256 _b) public pure returns (uint256) {\n    return SafeMath.div(_a, _b);\n  }\n\n  function sub(uint256 _a, uint256 _b) public pure returns (uint256) {\n    return SafeMath.sub(_a, _b);\n  }\n\n  function add(uint256 _a, uint256 _b) public pure returns (uint256) {\n    return SafeMath.add(_a, _b);\n  }\n}\n",
  "sourcePath": "/home/malak/sites/rbkBlockchain/GreenChain/contracts/mocks/SafeMathMock.sol",
  "compiler": {
    "name": "solc",
    "version": "0.4.24+commit.e67f0147.Emscripten.clang"
  },
  "schemaVersion": "2.0.1",
  "updatedAt": "2018-09-02T09:11:22.644Z"
}