{
  "contractName": "SupportsInterfaceWithLookupMock",
  "abi": [
    {
      "constant": true,
      "inputs": [
        {
          "name": "_interfaceId",
          "type": "bytes4"
        }
      ],
      "name": "supportsInterface",
      "outputs": [
        {
          "name": "",
          "type": "bool"
        }
      ],
      "payable": false,
      "stateMutability": "view",
      "type": "function"
    },
    {
      "constant": true,
      "inputs": [],
      "name": "InterfaceId_ERC165",
      "outputs": [
        {
          "name": "",
          "type": "bytes4"
        }
      ],
      "payable": false,
      "stateMutability": "view",
      "type": "function"
    },
    {
      "constant": false,
      "inputs": [
        {
          "name": "_interfaceId",
          "type": "bytes4"
        }
      ],
      "name": "registerInterface",
      "outputs": [],
      "payable": false,
      "stateMutability": "nonpayable",
      "type": "function"
    }
  ],
  "bytecode": "0x608060405261003f6301ffc9a77c010000000000000000000000000000000000000000000000000000000002610044640100000000026401000000009004565b610101565b63ffffffff7c010000000000000000000000000000000000000000000000000000000002817bffffffffffffffffffffffffffffffffffffffffffffffffffffffff19161415151561009557600080fd5b6001600080837bffffffffffffffffffffffffffffffffffffffffffffffffffffffff19167bffffffffffffffffffffffffffffffffffffffffffffffffffffffff1916815260200190815260200160002060006101000a81548160ff02191690831515021790555050565b6102f8806101106000396000f300608060405260043610610057576000357c0100000000000000000000000000000000000000000000000000000000900463ffffffff16806301ffc9a71461005c57806319fa8f50146100c0578063214cdb8014610129575b600080fd5b34801561006857600080fd5b506100a660048036038101908080357bffffffffffffffffffffffffffffffffffffffffffffffffffffffff19169060200190929190505050610175565b604051808215151515815260200191505060405180910390f35b3480156100cc57600080fd5b506100d56101dc565b60405180827bffffffffffffffffffffffffffffffffffffffffffffffffffffffff19167bffffffffffffffffffffffffffffffffffffffffffffffffffffffff1916815260200191505060405180910390f35b34801561013557600080fd5b5061017360048036038101908080357bffffffffffffffffffffffffffffffffffffffffffffffffffffffff19169060200190929190505050610203565b005b6000806000837bffffffffffffffffffffffffffffffffffffffffffffffffffffffff19167bffffffffffffffffffffffffffffffffffffffffffffffffffffffff1916815260200190815260200160002060009054906101000a900460ff169050919050565b6301ffc9a77c01000000000000000000000000000000000000000000000000000000000281565b61020c8161020f565b50565b63ffffffff7c010000000000000000000000000000000000000000000000000000000002817bffffffffffffffffffffffffffffffffffffffffffffffffffffffff19161415151561026057600080fd5b6001600080837bffffffffffffffffffffffffffffffffffffffffffffffffffffffff19167bffffffffffffffffffffffffffffffffffffffffffffffffffffffff1916815260200190815260200160002060006101000a81548160ff021916908315150217905550505600a165627a7a72305820d239d1db55c11a826bcd5df992456d9d24469c8fd24bd639a0e37ed59b229fe10029",
  "source": "pragma solidity ^0.4.24;\n\nimport \"../introspection/SupportsInterfaceWithLookup.sol\";\n\n\ncontract SupportsInterfaceWithLookupMock is SupportsInterfaceWithLookup {\n  function registerInterface(bytes4 _interfaceId)\n    public\n  {\n    _registerInterface(_interfaceId);\n  }\n}\n",
  "sourcePath": "/Users/rabiibrahim/git/Land-chain/contracts/mocks/SupportsInterfaceWithLookupMock.sol",
  "compiler": {
    "name": "solc",
    "version": "0.4.24+commit.e67f0147.Emscripten.clang"
  },
  "schemaVersion": "2.0.1",
  "updatedAt": "2018-09-01T12:03:06.909Z"
}